:020000040800F2
:10000000F8940024A1030008C5C6000805B0000844
:10001000C1C60008DF1500088BE7000800000000DB
:10002000000000000000000000000000E1020008E5
:1000300089280008000000003D03000839D50008A9
:10004000BB030008BB030008BB030008BB03000898
:10005000BB030008BB030008BB030008BB03000888
:10006000BB030008BB030008BB030008992000087D
:10007000A9200008B9200008C9200008BB03000817
:10008000BB030008BB030008BB0300084D2A00089F
:10009000BD2A0008BB030008BB030008BB0300081F
:1000A000BB030008BB030008BB030008BB03000838
:1000B00001D70008BB030008BB030008BB0300080E
:1000C000BB030008BB030008BB030008BB03000818
:1000D000CDD30008BB030008BB030008BB03000826
:1000E000BB030008BB03000800000000BB030008BE
:1000F000BB030008BB030008BB030008BB030008E8
:10010000BB030008BB030008BB030008BB030008D7
:10011000BB0300087DDB0008BB030008BB0300082D
:10012000BB030008BB030008BB030008BB030008B7
:10013000BB030008BB030008BB030008BB030008A7
:1001400000000000000000000000000000000000AF
:10015000BB030008BB030008BB030008BB03000887
:10016000BB030008BB030008BB030008BB03000877
:10017000BB030008BB030008BB030008000000002D
:10018000BB030008BB030008BB030008BB03000857
:10019000BB030008BB030008BB030008BB03000847
:1001A000BB030008BB030008BB03000800000000FD
:1001B000BB030008BB030008BB030008BB03000827
:1001C000BB030008BB0300080000000000000000A3
:1001D0000000000000000000BB0300080000000059
:1001E000000000000000000000000000000000000F
:1001F0000000000000000000BB030008BB03000873
:10020000BB030008BB03000800000000BB0300089C
:10021000BB030008BB030008BB030008BB030008C6
:10022000BB03000800000000BB0300080000000042
:10023000BB030008BB03000800000000BB0300086C
:10024000BB030008BB030008BB030008BB03000896
:10025000BB030008BB030008BB030008BB03000886
:10026000BB030008BB030008BB030008BB03000876
:10027000BB030008BB030008BB030008000000002C
:10028000BB030008BB030008BB030008BB03000856
:1002900000000000BB030008BB03000800000000D2
:1002A00000000000BB030008BB030008BB030008FC
:1002B000BB030008BB030008BB030008CD2A0008ED
:1002C000BB030008BB030008BB030008DFF80CD029
:1002D00000F0ECF8004800470D0D0108F8940024E8
:1002E0002C4B19680868B0E8F04F80F30988BFF319
:1002F0006F8F4FF0000080F31188704700000000FE
:1003000008480068006880F308884FF0000080F318
:10031000148862B661B6BFF34F8FBFF36F8F00DFF3
:1003200000BF00BF08ED00E0DFF80C00016841F4F9
:1003300070010160704700BF88ED00E0EFF30980B5
:10034000BFF36F8F134B1A681EF0100F08BF20ED1C
:10035000108A20E9F04F106009B44FF0500080F38C
:100360001188BFF34F8FBFF36F8F11F09FFB4FF0DA
:10037000000080F3118809BC19680868B0E8F04FE4
:100380001EF0100F08BFB0EC108A80F30988BFF38D
:100390006F8F7047A4000024EFF3058070470000C2
:1003A0000648804706480047FEE7FEE7FEE7FEE70F
:1003B000FEE7FEE7FEE7FEE7FEE7FEE721D60008E0
:1003C000CD0200082DE9F05F0546002092469B46CD
:1003D00088460646814640241BE02846414647465B
:1003E000224600F053F853465A46C01A914110D3A2
:1003F00011461846224600F03AF82D1A67EB01081C
:100400004F4622460120002100F031F817EB000989
:100410004E41201EA4F10104DFDC484631462A4645
:100420004346BDE8F09F40EA01039B0703D009E083
:1004300008C9121F08C0042AFAD203E011F8013BD0
:1004400000F8013B521EF9D27047D2B201E000F829
:10045000012B491EFBD270470022F6E710B5134668
:100460000A4604461946FFF7F0FF204610BD202A31
:1004700004DB203A00FA02F1002070479140C2F1FB
:10048000200320FA03F3194390407047202A04DB2D
:10049000203A21FA02F00021704721FA02F3D040FD
:1004A000C2F120029140084319467047064C074D9F
:1004B00006E0E06840F0010394E807009847103434
:1004C000AC42F6D3FFF706FF102A0108302A0108D4
:1004D00070B58C1810F8015B15F0070301D110F806
:1004E000013B2A1106D110F8012B03E010F8016B33
:1004F00001F8016B5B1EF9D12B0705D40023521EB6
:100500000DD401F8013BFAE710F8013BCB1A921C1D
:1005100003E013F8015B01F8015B521EF9D5A1421B
:10052000D8D3002070BD00009FED201AB5EE002A40
:1005300000EE012A9FED1E1ABDEEC20AB5EEC02ADA
:10054000F1EE10FA10EE100AB8BF013800EE100AF2
:100550000020B8EEC00A32EE400A9FED162A20EEC7
:10056000010ABCEEC01A11EE101A30EE021AB0EBFE
:10057000512F18BF002102EE101A42F20C2000FE8B
:10058000010AC0F60100B8EE422A00EB810090EDAE
:10059000011A30EE420AB7EE002A32EE402A20EE6F
:1005A000010A90ED001A02EE010A704783F9223E1B
:1005B00000000044000000C4B0B503880D88AB42C1
:1005C00056D145884C88A54252D11488A3424FD1B8
:1005D0005488A5424CD105FB03FC436800254968BB
:1005E000B5EB9C0F506831D04FEA9C02524200BFDD
:1005F00093ED000A91ED001A30EE010A03F1100E9E
:1006000001F1100400F1100580ED000A013293EDB4
:10061000010A91ED011A30EE010A80ED010A93ED15
:10062000020A91ED021A30EE010A80ED020A93ED02
:10063000030A91ED031A30EE010A7346214680ED5C
:10064000030A2846D4D12146284673461CF00302EB
:100650000CD05242B3EC010AB1EC011A30EE010A9F
:10066000051D013280ED000A2846F3D1002000E08C
:10067000FD2040B2B0BD0180428043607047000061
:100680002DE9F04F8BB0B0F800B0B0F802E0F345C0
:1006900040F051810B88FD229B4540F04D814F88F1
:1006A000BB4240F04981BBF1000F436800F0298153
:1006B0006FF003004C6800EB8B08CDF81CE00027BE
:1006C00000934FF07E5906945E462046BBEB060031
:1006D00009D0B9002046FFF7BFFE00200130874255
:1006E00004F10404FAD104F1040AC4F80090751E60
:1006F00010D0A8EB87015046FFF7AEFE012054460C
:100700000130864204F10404FAD1002D07F10107FB
:100710002E46DBD1BBF1000F009BDDF81CE000F0A2
:10072000F0800420CDF814B000EB8E000190184644
:10073000ABF1010603EB8E044FEA8E021D1DCEF1D4
:100740000001002308919FED800A7746814600BF93
:100750005B4580F0F58003FB0EF0B0EE403A09EB0C
:1007600080010A9191ED001A0699B0EE414A01EB21
:10077000800009902146304606E000BF91ED004A16
:100780000138B0EE423A1144B5EEC04AF1EE10FA2B
:100790000ADDB4EEC34AB0EE442AF1EE10FAD8BF37
:1007A000B0EE432A09E000BFB1EE442AB4EEC23AEB
:1007B000F1EE10FA01DBB0EE432A0028DED1B5EEEF
:1007C000402AF1EE10FA00F0BB80B0EEC13AB4EE70
:1007D000423AF1EE10FA1CBFD84310EB0B0004D0E4
:1007E000002000BF01308642FCD1B5EE401AF1EE88
:1007F00010FA00F0A580CDE90346AEEB030C0A9990
:10080000BCF1010F4FF07E5008600AD0012029464C
:1008100091ED002A82EE012A01308742A1EC012AE3
:10082000F6D1DDE9080100BF91ED002A82EE012A30
:100830000C1D013081ED002A2146F5D1ACF1010BF0
:1008400005994FF00008DDF818A04846CDF808904B
:10085000984505D100EB8C060AEB8E0A33E000BF09
:1008600090ED001A0A9CB0EE413ABBF1000F94EDF6
:10087000002A01EE423A00F1040680ED003A15D05C
:100880000120002406EB040905EB040E99ED002A73
:100890009EED003A01EE432A0130874204F1040440
:1008A00089ED002AEED12644DDF81CE0DDE90804DC
:1008B0009AED002A94ED003A01EE432A0434013007
:1008C000AAEC012AF4D106EB8300013908F10108F2
:1008D000BED1DDF80890013F049E09F10409039C94
:1008E00003F101030198A6F101060444DDF814B0F8
:1008F00005447FF42DAFB5EE401A009BF1EE10FADF
:1009000020D10EFB0BF1002000294FF000020BD08C
:1009100093ED000AB5EE400AF1EE10FA04D101326F
:100920008A4203F10403F3D38A4208BF6FF0040044
:100930000BB0BDE8F08FFD2250B20BB0BDE8F08FD8
:10094000FB22F9E70022F7E7000000002DE9F04F55
:1009500088B0B0F802C00B889C4540F08880B0F8A1
:1009600000E013889E4540F08280B1F802905388E1
:1009700099457CD14FEA9C04476804FB09F049681B
:100980000CF00305029101EB0010019000202CF007
:100990000303A0EB9C0107EB830607914FEA890351
:1009A0005168C5F1000A00919FED330ACDE9039C1F
:1009B000CDE9050E0099CE4601EB8008DDE901BCCA
:1009C000002CB0EE401AE146384627D0624607991F
:1009D0003846B0EE401A00BF92ED002A90ED003A82
:1009E00003EE021A1A4490ED014A92ED002A04EE39
:1009F000021A1A4490ED025A92ED002A05EE021AEC
:100A00001A4490ED036A92ED002A06EE021A0131B3
:100A100000F110001A44DFD1D946304655B1514695
:100A200090ED002A99ED003A02EE031A04300131EC
:100A30009944F5D108F1040088ED001ABEF1010EC9
:100A40000CF1040C0BF1040B8046B9D1DDF80C90CD
:100A50000598DDF810C04844DDF818E007EB8C0776
:100A6000BEF1010E06EB8C06A2D1002000E0FD20B5
:100A700040B208B0BDE8F08F00000000B0B50388B8
:100A80000D88AB4256D145884C88A54252D1148876
:100A9000A3424FD15488A5424CD105FB03FC4368C7
:100AA00000254968B5EB9C0F506831D04FEA9C0295
:100AB000524200BF93ED000A91ED001A30EE410A58
:100AC00003F1100E01F1100400F1100580ED000A91
:100AD000013293ED010A91ED011A30EE410A80EDE9
:100AE000010A93ED020A91ED021A30EE410A80EDFF
:100AF000020A93ED030A91ED031A30EE410A7346A0
:100B0000214680ED030A2846D4D121462846734663
:100B10001CF003020CD05242B3EC010AB1EC011AF2
:100B200030EE410A051D013280ED000A2846F3D15E
:100B3000002000E0FD2040B2B0BD00002DE9F04FE4
:100B400083B002884B889A424DD144880B889C42DE
:100B500049D10023D1F804804FEA940C416804F095
:100B6000030ECDF80080A3EB9404029414019600C8
:100B70000194CEF1000B4046BCF1000F1ED0474659
:100B8000029C00BF08683D4638603744486807EB60
:100B90000609A85101F11000D1F808A0013447F866
:100BA00006A009EB0607C968374449F80610014654
:100BB000E8D101996C18014603E000BF009800EBF2
:100BC0008304BEF1000F07D05D4600BF51F8040B4F
:100BD000013520603444F9D10133013A08F10408A9
:100BE000CAD1002000E0FD2040B203B0BDE8F08F84
:100BF0009FED1F1A20EE010A9FED1F2ABDEEC01ABD
:100C0000B5EEC00AF1EE10FA11EE100AB8BF0138C5
:100C100001EE100A0020B8EEC11A30EE410A9FED35
:100C2000151A20EE010ABCEEC01A11EE101A30EEB1
:100C3000021AB0EB512F18BF002102EE101A42F237
:100C40000C2000FE010AC0F60100B8EE422A00EBBB
:100C5000810090ED011A30EE420AB7EE002A32EE22
:100C6000402A20EE010A90ED001A02EE010A7047B8
:100C700083F9223E00000044000000C470B5044621
:100C800043492068884203D042492068884208D1FD
:100C90004148006800F4403008B1012009E000201C
:100CA00007E03E48006800F4403008B1012000E051
:100CB0000020B8B107F0EEFE05466068B0F5803F51
:100CC00006D0B0F5003F04D0B0F5403F08D105E0B4
:100CD00000BF6068000CB5FBF0F502E0AD0800E075
:100CE00000BF2BE04FF40020002106F0D3FA0546A8
:100CF0006068C0F31101F9B980140C281CD2DFE838
:100D000000F01B060708090A0B111315171900BF7D
:100D100000BF00BF00BF00BF6068800C4000B5FB93
:100D2000F0F50AE02D0908E06D0906E0AD0904E0E0
:100D3000ED0902E02D0A00E000BF00BF6D08184871
:100D4000854206D82068806820F440702168886059
:100D50001DE01448854208D82068806820F440705F
:100D600040F480702168886011E00F48854208D8FF
:100D70002068806820F4407040F40070216888602A
:100D800005E02068806840F440702168886070BD8C
:100D9000002002400021024008230240086302585C
:100DA000105E5F0020BCBE0040787D0170B5054636
:100DB000AC6B206E00F0500098BB206E40F40070C9
:100DC00020662068006800F00800A8B120680BF0D9
:100DD000B8F810B32068C06800F40050E8B9206E7D
:100DE00020F480702066206E00F48050A8B9206E38
:100DF00040F00100206610E02068C06800F00300A9
:100E000058B9206E20F480702066206E00F4805067
:100E100018B9206E40F001002066204602F0AAFCBE
:100E20000CE0FFE7206E00F0100018B1204602F041
:100E3000A3FC03E0A06DC16C2846884770BD70B567
:100E40000546AC6B206E40F040002066606E40F0BE
:100E500004006066204602F08FFC70BD70B5044649
:100E6000A56B284602F087FC70BD000070B50446F3
:100E700020680BF048F8064620680BF049F898B354
:100E800096BB2068806800F00D0001280AD1206818
:100E900081681A4A1140891C816000BF03202168C3
:100EA000086009E0206E40F010002066606E40F09F
:100EB00001006066012070BD05F052FD054614E09A
:100EC00005F04EFD401B02280FD92068806800F015
:100ED000010050B1206E40F010002066606E40F0BE
:100EE000010060660120E6E705E02068806800F008
:100EF00001000028E4D10020DDE70000C0FFFF7FF3
:100F000070B5044620680BF003F8002851D1206822
:100F100080682949084048B1206E40F010002066E2
:100F2000606E40F001006066012070BD20680AF02C
:100F3000CFFF05F015FD0546204A2168914203D0F8
:100F40001F4A2168914201D11E4900E01E4908460E
:100F50000AF0C6FF06461A492068884201D11748A0
:100F600000E020682168884200D00EBB1AE02068AB
:100F70000AF0CEFF10B920680AF0AAFF05F0F0FCD5
:100F8000401B02280ED92068006800F0010048B913
:100F9000206E40F010002066606E40F00100606638
:100FA0000120C2E72068006800F001000028DED0C0
:100FB00000BF0020B9E700003F0000800020024091
:100FC00000210240002302400063025810B50122B4
:100FD0001146024805F0BEFC10BD00000008025892
:100FE00010B500220121024805F0B4FC10BD00003C
:100FF0000008025810B501220821024805F0AAFC99
:1010000010BD00000008025810B500220821024857
:1010100005F0A0FC10BD00000008025810B5044601
:10102000FFF7DEFF922000F011FA0622C2491220DB
:1010300000F0ECF9FFF7CAFFC0480078002855D04F
:10104000BD484078000200B2BB4909780843BC495A
:10105000088094ED0C0A0846B0F9000000EE900AF2
:10106000F8EEE00AB74890ED001A60EE810A94EDC0
:10107000081A10EE810A84ED000AAF48C078000219
:1010800000B2AD4989780843AD49088094ED0D0A56
:101090000846B0F9000000EE900AF8EEE00AA94810
:1010A00090ED001A60EE810A94ED081A10EE810AA4
:1010B00084ED010AA0484079000200B29E490979F6
:1010C00008439F4908800846B0F9000000EE100A66
:1010D000B8EEC00A9B48D0ED000A20EE200AD4EDFD
:1010E000080A20EE200A84ED020A50E09248407877
:1010F000000200B2904909780843914908800846E7
:10110000B0F9000000EE100AB8EEC00A8D48D0ED2C
:10111000000A20EE200AD4ED080A20EE200A84ED11
:10112000000A8548C078000200B2834989780843E4
:10113000834908800846B0F9000000EE100AB8EEB6
:10114000C00A8048D0ED000A20EE200AD4ED080A3B
:1011500020EE200A84ED010A77484079000200B2AF
:10116000754909790843764908800846B0F90000B6
:1011700000EE100AB8EEC00A7248D0ED000A20EE68
:10118000200AD4ED080A20EE200A84ED020AFFF7B7
:101190003BFF08226849002000F038F9FFF72AFFDA
:1011A000654800780F284FD164480078F0B3624852
:1011B000C078000200B2604989780843604908801D
:1011C00094ED090A0846B0F9000000EE900AF8EE26
:1011D000E00A5D4890ED001A10EE810A84ED030AE2
:1011E00055484079000200B25349097908435449EF
:1011F000088094ED0A0A0846B0F9000000EE900A53
:10120000F8EEE00A504890ED001A10EE810A84EDE5
:10121000040A4948C079000200B247498979084365
:101220004749088094ED0B0A084600E00DE0B0F94C
:10123000000000EE900AF8EEE00A434890ED001A34
:1012400010EE810A84ED050A44E03B48C0780002B4
:1012500000B2394989780843394908800846B0F90D
:10126000000000EE100AB8EEC00A3748D0ED000AC0
:1012700020EE200A84ED030A2F484079000200B2D4
:101280002D49097908432E4908800846B0F9000025
:1012900000EE100AB8EEC00A2B48D0ED000A20EE8E
:1012A000200A84ED040A2448C079000200B22249D1
:1012B00089790843224908800846B0F9000000EE09
:1012C000100AB8EEC00A2048D0ED000A20EE200A2D
:1012D00084ED050AFFF784FEA22000F0B7F8022291
:1012E0001549222000F092F8FFF770FE12480078AE
:1012F000C0001149497840EA611011490880084648
:10130000B0F90000B0F5806F05DB08460088A0F555
:10131000006000B208800A48B0F9000000EE100A30
:10132000F8EEC00AB4EE001AB3EE070A00EE810A26
:1013300084ED070A10BD0000780000244800002456
:1013400080000024380000243C00002470B50446CE
:101350000D46224804600020214908700EF044F92F
:101360001F49097808431E4908700EF0F3F91C491B
:10137000097808431A4908701DB11A4800F032F97B
:1013800028E09FED190A174880ED090A9FED170A1A
:1013900080ED0A0A9FED160A80ED0B0A9FED150AF3
:1013A00080ED0C0A9FED140A80ED0D0A9FED130AE3
:1013B00080ED0E0A9FED120A80ED0F0A90ED0F0AE4
:1013C000DFED100A80EE801A80ED081A9FED0E0AFC
:1013D00080ED060A0248007870BD000084000024F9
:1013E0004200002470090024F0A032BAB9F3AFBA69
:1013F000B1EFBBBA0B6F993E2A98933D00000000F5
:101400007A841D41C3F51C410000204270B5064698
:101410000C46154646F0800000F018F806E055200E
:1014200000F014F82070641C681EC5B2002DF6D1BF
:1014300070BD70B504460D4644F0800000F006F81B
:10144000552000F003F8287070BD000001B582B08F
:101450004FF47A70012301AA02A9009003480068A2
:1014600008F008FB9DF804000EBD00008400002475
:1014700070B505460C462846FFF7E8FF2046FFF703
:10148000E5FF70BDD2ED020A92ED021AB6EE000A37
:1014900000EEC10AD2ED030A92ED031A00EEC10A72
:1014A000D0ED000A20EE200AD2ED010A92ED021AD8
:1014B00060EE810A92ED001AD2ED031A41EE610A44
:1014C00090ED011A00EE810AD2ED010A92ED031AA5
:1014D00060EE810A92ED001AD2ED021A41EE210A65
:1014E00090ED021A00EE810AF0EE000A20EE200ACA
:1014F00081ED000A92ED010AD2ED020A20EE200AE7
:10150000D2ED000A92ED031A00EE810AD0ED000A36
:1015100060EE200A92ED011AD2ED011AB6EE000A31
:1015200001EE610AD2ED031A92ED032AB0EE401AE1
:1015300001EEC21AD0ED011AB0EE600A01EE210AE6
:10154000D2ED020A92ED031A60EE810A92ED001AC2
:10155000D2ED011A41EE610A90ED021A00EE810A05
:10156000F0EE000A20EE200A81ED010A92ED010A58
:10157000D2ED030A20EE200AD2ED000A92ED021A03
:1015800000EEC10AD0ED000A20EE200AD2ED020AD8
:1015900092ED031A60EE810A92ED001AD2ED011A63
:1015A00041EE210A90ED011A00EE810A92ED011A36
:1015B000D2ED011AF6EE000A41EE610A92ED021A2E
:1015C000D2ED021A41EE610A90ED021A00EE810A94
:1015D000F0EE000A20EE200A81ED020A704700BFFB
:1015E000FEE7000070B52DED048B88B004460020A6
:1015F0000690079001F082F8FE4880ED000A00BFD7
:1016000001F07CF8FB48D0ED000A30EE600AF2EE03
:10161000040AB4EEE00AF1EE10FA14DD9FEDF60ACA
:1016200084ED090A9FEDF50A84ED0A0A9FEDF40A9C
:1016300084ED0B0A9FEDF30A84ED0F0A9FEDF20A89
:1016400084ED060A5FE29FEDF10A01F013F89FEDC9
:10165000F00A84ED0F0A9FEDEE0A84ED090A9FED72
:10166000EC0A84ED0A0A9FEDEA0A84ED0B0A0026D3
:1016700073E1FFF7B5FC9220FFF7E8FE062206A90A
:101680001220FFF7C3FEFFF7A1FC9DF8190000022E
:1016900000B29DF8181040EA010500EE105AB8EEAD
:1016A000C00ADC48D0ED000A20EE200A84ED000AD2
:1016B0009DF81B00000200B29DF81A1040EA0105D7
:1016C00000EE105AB8EEC00AD248D0ED000A20EE63
:1016D000200A84ED010A9DF81D00000200B29DF869
:1016E0001C1040EA010500EE105AB8EEC00AC948C5
:1016F000D0ED000A20EE200A84ED020AD4ED000AA3
:1017000060EEA00A94ED011AD4ED011A41EE210A0F
:1017100094ED021AD4ED021A41EE210AB0EE600AED
:101720000DF019FFB0EE408A94ED0F0A30EE080A72
:1017300084ED0F0AFFF768FC082206A90020FFF7D6
:1017400065FEFFF757FC9DF818000F2850D19DF853
:101750001B00000200B29DF81A1040EA010500EEDD
:10176000105AB8EEC00AAC48D0ED000A20EE200AAC
:1017700084ED030A94ED090AD4ED030A30EE200A41
:1017800084ED090A9DF81D00000200B29DF81C10AE
:1017900040EA010500EE105AB8EEC00A9E48D0EDAE
:1017A000000A20EE200A84ED040A94ED0A0AD4ED22
:1017B000040A30EE200A84ED0A0A9DF81F00000298
:1017C00000B29DF81E1040EA010500EE105AB8EE76
:1017D000C00A9148D0ED000A20EE200A84ED050AE7
:1017E00094ED0B0AD4ED050A30EE200A84ED0B0AC5
:1017F00006BBF0EE488AB0EE489A002017E004F1EC
:101800000C0101EB800191ED000A03A901EB8001BD
:1018100081ED000A04F10C0101EB800191ED000A59
:10182000694601EB800181ED000A411CC8B2032822
:10183000E5DB49E0B4EEE88AF1EE10FA01DDF0EE06
:10184000488AB4EEC98AF1EE10FA01D2B0EE489A95
:10185000002037E004F10C0101EB800191ED000A5A
:1018600003A901EB8001D1ED000AB4EEE00AF1EE2C
:1018700010FA0ADD04F10C0101EB800191ED000A80
:1018800003A901EB800181ED000A04F10C0101EBD9
:10189000800191ED000A694601EB8001D1ED000A5B
:1018A000B4EEE00AF1EE10FA0AD204F10C0101EBF9
:1018B000800191ED000A694601EB800181ED000A8B
:1018C000411CC8B20328C5DB38EEC90A534880ED75
:1018D000000A002012E003A901EB800191ED000A4B
:1018E000694601EB8001D1ED000A30EE600A4C49F7
:1018F00001EB800181ED000A411CC8B20328EADB3C
:10190000464890ED000AF6EE000AB4EEE00AF1EE69
:1019100010FA1BDC424890ED000ADFED420AB4EEFB
:10192000E00AF1EE10FA11DC90ED010ADFED3D0A5C
:10193000B4EEE00AF1EE10FA08DC90ED020ADFEDF9
:10194000390AB4EEE00AF1EE10FA00DD0AE09FED8C
:10195000360A00F08FFE701C86B23448008886423A
:10196000FFF687AE00BFD4ED0F0A3048008800EEC6
:10197000100AB8EE400A80EE801A84ED0F1A00209B
:1019800015E004F1240101EB8001D1ED000A2749A3
:10199000098800EE101AB8EE400A80EE801A04F1B1
:1019A000240101EB800181ED001A411CC8B203281B
:1019B000E7DBFFF715FBA220FFF748FD022206A98F
:1019C0002220FFF723FDFFF701FB9DF81800C00060
:1019D0009DF8191040EA6115B5F5806F02DBA5F599
:1019E000006005B200EE105AF8EEC00AB4EE001A1C
:1019F0001EE0000070000024F0A032BAB9F3AFBAC4
:101A0000B1EFBBBA7A841D41000020420AD7A33B44
:101A100000000000380000243C00002444000024A2
:101A2000640900249A99193E6F12033A7400002445
:101A3000B3EE070A00EE810A84ED060A7C480088AE
:101A4000401C00B27A4908807A4890ED000AF6EE10
:101A5000000AB4EEE00AF1EE10FA3FF7D1ADD4ED92
:101A60000F0A9FED751A70EEC10AB0EE600A0EF013
:101A700052FEF6EE000AB4EEE00AF1EE10FAECDCEB
:101A80006E4890ED000A5FED190AB4EEE00AF1EE3F
:101A900010FAE2DC90ED010A5FED1E0AB4EEE00AF6
:101AA000F1EE10FAD9DC90ED020A5FED220AB4EEF5
:101AB000E00AF1EE10FAD0DCD4ED090AB0EE600ACB
:101AC0000EF029FEDFED5E0AB4EEE00AF1EE10FA48
:101AD000C3DCD4ED0A0AB0EE600A0EF01CFEDFEDA6
:101AE000580AB4EEE00AF1EE10FAB6DCD4ED0B0AB7
:101AF000B0EE600A0EF00FFEDFED510AB4EEE00A20
:101B0000F1EE10FAA9DC00BF94ED0F0ADFED4D0AEB
:101B100080EE801A84ED081A002680E0FFF760FA54
:101B20009220FFF793FC062206A91220FFF76EFC15
:101B3000FFF74CFA9DF81900000200B29DF818104A
:101B400040EA010500EE105AB8EEC00A3E48D0ED5A
:101B5000000A20EE200AD4ED080A20EE200A84EDC7
:101B6000000A94ED0C0ADFED390A20EE200AD4EDCC
:101B7000000A9FED371A00EE810A84ED0C0A9DF8E9
:101B80001B00000200B29DF81A1040EA010500EEA9
:101B9000105AB8EEC00A2C48D0ED000A20EE200AF8
:101BA000D4ED080A20EE200A84ED010A94ED0D0A16
:101BB000DFED260A20EE200AD4ED010A9FED241A5B
:101BC00000EE810A84ED0D0A9DF81D00000200B2AE
:101BD0009DF81C1040EA010500EE105AB8EEC00A4C
:101BE0001948D0ED000A20EE200AD4ED080A20EEB4
:101BF000200A84ED020A94ED0E0ADFED140A20EEAD
:101C0000200AD4ED020A9FED121A00EE810A84ED3B
:101C10000E0A1FED7B0A00F02DFD701C86B20D48E8
:101C200000888642FFF67AAF08B0BDEC048B70BD29
:101C30004A00002444000024CDCC1C416409002447
:101C40000AD7233CC3F51C4138000024CDCC4C3FBF
:101C5000CDCC4C3E7600002400BF00F05DF8FCE7E0
:101C60002DE9F04104460D4616460022062104F1F6
:101C700070000EF0B3FE0022082104F1A8000EF05F
:101C8000ADFE0022012104F58E700FF055FF2846AD
:101C90000DF0DEF9DFED1C0A9FED1C0A1C4A002145
:101CA00030460AF0E1FE00270AE0B4F8A820AC2094
:101CB000015B18480EF00EFD01200FF0B9F97F1CF2
:101CC0000A2FF2DB00270AE0B4F870207420015BD1
:101CD00010480EF0FFFC01200FF0AAF97F1C0A2F1C
:101CE000F2DB00270BE04FF48E70025BB4F8241196
:101CF00008480EF0EFFC01200FF09AF97F1C0A2F24
:101D0000F1DBBDE8F0810000000000000000B442FB
:101D100060210108BC04002408B502E001200FF096
:101D200087F94C4890F890000028F7D04A4A4B4970
:101D30004B48FFF795FF8BE0464A484948480EF06C
:101D4000A1F84548474B434A4449009044480DF0A8
:101D5000D9FD434890F8B80101283FD13F4890EDA4
:101D60001E0AB0EE402ADFED401A9FED3F1ADFED6C
:101D70003E0A9FED3D0A08213C480FF051F83C48CF
:101D800000680FF055F9354890ED1D0AB0EE402A75
:101D9000DFED351A9FED341ADFED330A9FED320A7D
:101DA000062132480FF03CF8314800680FF040F946
:101DB0002B4890ED480AB0EE402ADFED2B1A9FED3C
:101DC0002A1ADFED290A9FED280A012127480FF082
:101DD0009FF8274800680FF02BF939E0204890F869
:101DE000B801A8BB9FED202ADFED1F1A9FED1E1A38
:101DF000DFED1D0A9FED1C0A08211C480FF010F8AA
:101E00001B4800680FF014F99FED172ADFED161A32
:101E10009FED151ADFED140A9FED130A06211348F2
:101E20000EF0FEFF124800680FF002F99FED0E2A37
:101E3000DFED0D1A9FED0C1ADFED0B0A9FED0A0A7C
:101E400001210A480FF064F8094800680FF0F0F823
:101E500072E70000C0820024A0840024F0830024E4
:101E6000988500242801002400000000BC04002400
:101E70005C01002400BF00F057F8FCE72DE9F041B9
:101E800004460D4616460022062120460EF0A6FD09
:101E90000022082104F138000EF0A0FD00220121EB
:101EA00004F1E0000FF048FE28460DF0D1F8DFED18
:101EB0001A0A9FED1A0A1A4A002130460AF0D4FD88
:101EC000002708E0228FA18F16480EF003FC0120A6
:101ED0000FF0AEF87F1C0A2FF4DB002708E0228801
:101EE000A18810480EF0F6FB01200FF0A1F87F1C2E
:101EF0000A2FF4DB00270AE0B4F8E020E820015BB9
:101F000008480EF0E7FB01200FF092F87F1C0A2F23
:101F1000F2DBBDE8F0810000000000000000B442E8
:101F20006C2101081C04002408B502E001200FF018
:101F30007FF84E4890F890000028F7D04C4A4D4961
:101F40004D48FFF79BFF4D4A4D494E480AF0BCFDF6
:101F50008BE0464A474948480EF0CEFA44484A4B7F
:101F6000424A4449009044480DF0B2FF424890F87C
:101F7000B80101283FD13F4890ED1E0AB0EE402A3B
:101F8000DFED421A9FED411ADFED400A9FED3F0A57
:101F900008213F480EF044FF3E4800680FF048F823
:101FA000344890ED1D0AB0EE402ADFED381A9FED5F
:101FB000371ADFED360A9FED350A062134480EF058
:101FC0002FFF344800680FF033F82B4890ED390AA2
:101FD000B0EE402ADFED2D1A9FED2C1ADFED2B0A13
:101FE0009FED2A0A01212A480EF092FF2948006835
:101FF0000FF01EF839E0204890F8B801A8BB9FED1B
:10200000232ADFED221A9FED211ADFED200A9FED32
:102010001F0A08211E480EF003FF1E4800680FF03B
:1020200007F89FED1A2ADFED191A9FED181ADFED58
:10203000170A9FED160A062115480EF0F1FE154805
:1020400000680EF0F5FF9FED112ADFED101A9FEDED
:102050000F1ADFED0E0A9FED0D0A01210C480EF05C
:1020600057FF0C4800680EF0E3FF72E7C0820024BF
:1020700058870024E884002498850024E8870024F9
:10208000A0870024308800246401002400000000A0
:102090001C0400245802002410B5024802F078FA0B
:1020A00010BD00008406002410B5024802F070FA4A
:1020B00010BD0000A008002410B5024802F068FA24
:1020C00010BD0000FC06002410B5024802F060FAC2
:1020D00010BD0000A40300240146374A086890425E
:1020E00049D0354A18320868904244D0324A3032DA
:1020F000086890423FD0304A4832086890423AD04F
:102100002D4A60320868904235D02B4A78320868F0
:10211000904230D0284A9032086890422BD0264A0C
:10212000A8320868904226D0244A0868904222D0FB
:10213000224A1832086890421DD0204A303208687E
:10214000904218D01D4A48320868904213D01B4A6A
:102150006032086890420ED0184A7832086890427F
:1021600009D0164A90320868904204D0134AA83227
:102170000868904201D1012000E00020B0B10A7847
:10218000103A1823B2FBF3F000F007020C4B9A5CF4
:10219000CA65032805D90A686FF30902121D8A650A
:1021A00003E00A686FF309028A6503E0086820F01B
:1021B000FF008865886D70471000024010040240DF
:1021C000C420010810B502682B4C0368A34222D03A
:1021D000294C14340368A3421DD0274C28340368CB
:1021E000A34218D0244C3C340368A34213D0224CA1
:1021F00050340368A3420ED01F4C64340368A342DA
:1022000009D01D4C78340368A34204D01A4C8C3496
:102210000368A34201D1012300E000238BB10378BE
:10222000083B1424B3FBF4F1144B03EB8103036666
:10223000124B8033436601F01F040123A3408366E1
:1022400018E00378103B1824B3FBF4F10C4B9A42CE
:1022500004D80B4BA83B9A4200D30831094B03EB3F
:1022600081030366074B8033436601F01F0401239B
:10227000A340836610BD000008540258005802585D
:10228000B8040240000802400179A9B3082940D8E7
:10229000204B02689A4222D01E4B143302689A42A5
:1022A0001DD01C4B283302689A4218D0194B3C337E
:1022B00002689A4213D0174B503302689A420ED0EC
:1022C000144B643302689A4209D0124B7833026887
:1022D0009A4204D00F4B8C3302689A4201D10122FA
:1022E00000E000224AB14A1E0B4B03EB8202C26699
:1022F000094A4032026708E00BE04A1E074B03EB35
:102300008202C266054A403202674A1E0123934098
:1023100043677047085402580059025800090240A8
:10232000014600208A69D2B98A6A32B1012A0DD0E9
:10233000022A03D0032A10D10EE000BFCA6A02F0BD
:102340008072B2F1807F00D1012007E0CA6AB2F149
:10235000C07F00D1012001E000E000BF36E08A69C3
:10236000B2F5005F1BD18A6A32B1012A07D0022A76
:1023700003D0032A11D10AE000BF01200EE0CA6A8F
:1023800002F08072B2F1807F00D1012006E0CA6ABB
:10239000B2F1C07F00D1012000E000BF16E08A6AE0
:1023A00032B1012A05D0022A04D0032A0CD103E05D
:1023B00000BF00BF012008E0CA6A02F08072B2F1DB
:1023C000807F00D1012000E000BF00BF7047000007
:1023D000F0B5856D846D984F0668BE4270D0964FFB
:1023E00018370668BE426BD0934F30370668BE423E
:1023F00066D0914F48370668BE4261D08E4F603735
:102400000668BE425CD08C4F78370668BE4257D013
:10241000894F90370668BE4252D0874FA83706686A
:10242000BE424DD0854F0668BE4249D0834F183713
:102430000668BE4244D0814F30370668BE423FD066
:102440007E4F48370668BE423AD07C4F60370668F8
:10245000BE4235D0794F78370668BE4230D0774FCC
:1024600090370668BE422BD0744FA8370668BE422C
:1024700026D0734F0668BE4222D0714F14370668CB
:10248000BE421DD06E4F28370668BE4218D06C4F32
:102490003C370668BE4213D0694F50370668BE42CB
:1024A0000ED0674F64370668BE4209D0644F783754
:1024B0000668BE4204D0624F8C370668BE4201D126
:1024C000012600E000263EB1D0E919767E60C66E96
:1024D00016B1D0E91C767E60574F0668BE4249D0DF
:1024E000554F18370668BE4244D0534F3037066800
:1024F000BE423FD0504F48370668BE423AD04E4F9A
:1025000060370668BE4235D04B4F78370668BE420A
:1025100030D0494F90370668BE422BD0464FA8377F
:102520000668BE4226D0454F0668BE4222D0434FC1
:1025300018370668BE421DD0404F30370668BE428D
:1025400018D03E4F48370668BE4213D03B4F603725
:102550000668BE420ED0394F78370668BE4209D0B1
:10256000364F90370668BE4204D0344FA83706680D
:10257000BE4201D1012600E00026DEB190F85C6089
:1025800006F01F073F26BE40AE600668366826F498
:10259000802607683E60066873608668402E04D116
:1025A0000668B2600668F16044E00668B1600668DB
:1025B000F2603FE0224F0668BE4222D0204F14371F
:1025C0000668BE421DD01E4F28370668BE4218D08E
:1025D0001B4F3C370668BE4213D0194F5037066870
:1025E000BE420ED0164F64370668BE4209D0144F63
:1025F00078370668BE4204D0114F8C370668BE4259
:1026000001D1012600E00026A6B190F85C6006F03A
:102610001F070126BE406660066873608668402E0C
:1026200004D10668B2600668F16003E00668B16034
:102630000668F260F0BD0000100002401004024085
:102640000854025808B508484068009007490098A7
:102650000968884204D206480068401C04490860A2
:1026600002490098086008BD001000E00003002443
:10267000FC0200240C494868F0EE400A00BF0A49F9
:102680004968091A01EE101AF8EE411A074991ED4E
:10269000001AB8EE411A20EE811AF4EEC11AF1EEDA
:1026A00010FAECD370470000001000E0F0020024A4
:1026B00010B52DED028B82B004460E4840680190A3
:1026C00020680199081A00EE100AF8EE400A0A483C
:1026D00090ED000AB8EE400A80EE801AB0EE418A12
:1026E00001982060FFF7AEFFB0EE480A02B0BDECE3
:1026F000028B10BD001000E0F002002410B52DED9B
:10270000028B00F059F80F4890ED000AB8EE400A2D
:10271000808800EE900AF8EE600A9FED0B1A00EE3A
:10272000810A0848C08800EE900AF8EE600A9FED22
:10273000071A00EE810AB0EE408AB0EE480ABDECFE
:10274000028B10BDE80200246F12833ABD37863534
:102750001249096841F08071104A11600021104A45
:1027600051601146096841F0010111600D49414372
:102770000D4A1160114609684FF47A72B1FBF2F10B
:102780000A4A116008490968064AB1FBF2F1084A91
:1027900011600021074A116070470000FCED00E065
:1027A000001000E040420F00F0020024F402002478
:1027B000F8020024FC02002438B529484068009043
:1027C000FFF740FF274800684FF0FF31A0FB0131C1
:1027D0000098181841F10001234A03C2234800233E
:1027E0002149026803C9FDF7EDFD214A03C22048D3
:1027F0000CC81E4800680024A2FB001503FB005013
:1028000002FB04021848D0E90030591A60EB0200BC
:10281000184AC2E9001016480068174908601748AE
:1028200000231449026803C9FDF7CCFD12498880D2
:10283000084680881149096841430E48D0E90030B4
:10284000591A60F100000E4AC2E900100D48002339
:102850000B49026803C9FDF7B5FD0749C88038BDBB
:10286000001000E0FC02002408030024F002002411
:102870001003002418030024E8020024F4020024BA
:1028800020030024F80200247047D2ED020A92EDE2
:10289000021AB6EE000A00EEC10AD2ED030A92ED6A
:1028A000031A00EEC10AD0ED000A20EE200AD2ED94
:1028B000010A92ED021A60EE810A92ED001AD2ED41
:1028C000031A41EE210A90ED011A00EE810AD2EDC1
:1028D000010A92ED031A60EE810A92ED001AD2ED20
:1028E000021A41EE610A90ED021A00EE810AF0EE42
:1028F000000A20EE200A81ED000A92ED010AD2EDD5
:10290000020A20EE200AD2ED000A92ED031A00EE30
:10291000C10AD0ED000A60EE200A92ED011AD2ED54
:10292000011AB6EE000A01EE610AD2ED031A92ED29
:10293000032AB0EE401A01EEC21AD0ED011AB0EE31
:10294000600A01EE210AD2ED020A92ED031A60EE4E
:10295000810A92ED001AD2ED011A41EE210A90EDA2
:10296000021A00EE810AF0EE000A20EE200A81ED44
:10297000010A92ED010AD2ED030A20EE200AD2EDFF
:10298000000A92ED021A00EE810AD0ED000A20EE54
:10299000200AD2ED020A92ED031A60EE810A92ED4E
:1029A000001AD2ED011A41EE610A90ED011A00EE13
:1029B000810A92ED011AD2ED011AF6EE000A41EEFB
:1029C000610A92ED021AD2ED021A41EE610A90ED0F
:1029D000021A00EE810AF0EE000A20EE200A81EDD4
:1029E000020A704772B600BFFEE7000000B589B06A
:1029F000002001900290022003900120049000200A
:102A00000590069001A9104803F069F808B1FFF796
:102A1000E9FF002003460222114600900A4803F015
:102A2000B2F808B1FFF7DEFF00220121064802F0EC
:102A3000B9FF08B1FFF7D6FF034803F06FFE08B1F6
:102A4000FFF7D0FF09B000BD1C04002410B50248F8
:102A500003F0B2F910BD00001C04002400B589B0D9
:102A60000020019001200290022003900490002099
:102A70000590069001A9104803F031F808B1FFF75E
:102A8000B1FF002003460222114600900A4803F0DD
:102A90007AF808B1FFF7A6FF00221021064802F0DD
:102AA00081FF08B1FFF79EFF034803F037FE08B12E
:102AB000FFF798FF09B000BDBC04002410B5024820
:102AC00003F07AF910BD0000BC04002410B50248E0
:102AD00003F072F910BD00005C05002410B501463A
:102AE0004A6B0868D0F884004FF6FC74A04340EAB3
:102AF00082000C68C4F884000868D0F8840020F4D0
:102B00007F04088F44EA00400C68C4F88400886B96
:102B100002440868D0F888004FF6FC74A04340EAED
:102B200082000C68C4F888000868D0F8880020F497
:102B3000FE04888F44EA00400C68C4F88800C86B23
:102B400002EB40020868D0F8A0004FF6FC74A043E6
:102B500040EA82000C68C4F8A0000868D0F8A00021
:102B600020F4FE044020405A44EA00400C68C4F8B7
:102B7000A000D1E9104004FB00220868D0F8B000A2
:102B80004FF6FC74A04340EA82000C68C4F8B00021
:102B90000868D0F8B00020F4FE04B1F8480044EA18
:102BA00000400C68C4F8B000D1E9124004FB0022D8
:102BB0000868D0F8AC004FF6FC74A04340EA8200ED
:102BC0000C68C4F8AC00D1E9144004FB002208688A
:102BD000D0F8F0004FF6FC74A04340EA82000C6885
:102BE000C4F8F0000868D0F8F00020F47C14B1F8C4
:102BF000580044EA00400C68C4F8F000886D02EB0D
:102C000040020868D0F8C0004FF6FC74A04340EAC8
:102C100082000C68C4F8C0000868D0F8C00020F436
:102C20007C14B1F85C0044EA00400C68C4F8C000B1
:102C30000868D0F8C00020F07C5491F8600044EAA5
:102C400000600C68C4F8C0002A4C486B04EB80009C
:102C5000C866CC6E886B04EB80040C670C6FC86B85
:102C600004EBC0044C67D1E9100460434C6F04EBE3
:102C700080048C67D1E9120460438C6F04EB8004FC
:102C8000CC67D1E914046043CC6F04EB800480204E
:102C900044504458886D04EBC004842044508C6E2A
:102CA000C86D60438424645804EB80048820445039
:102CB0008C6E086E60438824645804EB8004902076
:102CC000445040580C4CA04209D99831486840F013
:102CD00020004860032001F89809012010BDCB6E48
:102CE00002E0002018601B1D902040589842F8D840
:102CF0000020F3E700AC0040FCD300402DE9F04198
:102D0000054614461E46D1F804C0BCF1000F0AD196
:102D1000D1F810C0D1F808804CEA080CB1F8008056
:102D20004CEA88430BE0D1F810C04CF0804CD1F84D
:102D300008804CEA080CD1F800804CEA080391F8AE
:102D40002080D1F81CC04CEA086CD1F818804CEAFD
:102D5000080CD1F814804CEA080CD1F80C804CEA2D
:102D60000807D5F868C00CFB06FCD5F8848008EB92
:102D70008C021360121D1760121D002019E000F173
:102D8000030C14F80CC04FEA0C6800F1020C14F8A4
:102D90000CC048EA0C4800F1010C14F80CC048EAD9
:102DA0000C2C14F800804CEA080CC2F800C0121D6C
:102DB000001DDFF81880D1F80CC008EB1C4C9CF803
:102DC00000C08445DBD8BDE8F0810000CC200108BC
:102DD000F8B504460D4616460020009000BF94F852
:102DE0005C00012801D10220F8BD012084F85C00BC
:102DF00000BF2046FEF73AF80746A7BB206E20F436
:102E0000885040F002002066206805F4803141F0CF
:102E1000004106F0804211438268194B1A40114369
:102E2000816000BF13E00098401C00901549009895
:102E300088420CD3206E20F0020040F01000206683
:102E400000BF002084F85C0000BF0120CCE72068B0
:102E50008168C90F0029E6D1206E20F0020040F001
:102E60000100206604E0FFE7206E40F010002066BD
:102E700000BF002084F85C0000BF3846B4E70000C3
:102E8000C0FFFE3F00F8C3252DE9F0439DB0044686
:102E90000E464FF00008306800B100BF00BF94F844
:102EA0005C00012803D102201DB0BDE8F0830120A1
:102EB00084F85C0000BF002019901A9046492068F1
:102EC000884202D14548019001E00020019001981C
:102ED00050B9206E40F02000206600BF002084F82A
:102EE0005C0000BF0120DFE7019809F025F80746E4
:102EF000206809F021F8002861D1002F5FD1364900
:102F00002068884203D035492068884201D134487E
:102F100000E034480546306858B3A86820F44040C3
:102F200071680843A8602C492068884203D02B4967
:102F30002068884201D12A4800E02A48284988426E
:102F400009D1254808F0E9FF8146244808F0E5FF4B
:102F500049EA000002E0244808F0DFFF70BBB168D6
:102F600030680843A96840F61F7291430843A8607F
:102F70002BE0A86820F44040A860174920688842E8
:102F800003D016492068884201D1154800E0154851
:102F90001349884209D1104808F0BFFF81460F4805
:102FA00008F0BBFF49EA000002E00F4808F0B5FF57
:102FB00020B9A86840F61F718843A86005E0206E1C
:102FC00040F0200020664FF0010800BF002084F888
:102FD0005C0000BF404667E700200240002102403D
:102FE0000023024000630258006002582DE9F84FA8
:102FF00004460D464FF0000A0020009094F844006B
:10300000012800D105E0FE492068884200D100E097
:1030100000BFFC49E868884200D00EE0FA49206809
:10302000884200D100BFF9492068884200D100BF22
:10303000F3492068884200D100BF00BF94F85C00CB
:10304000012802D10220BDE8F88F012084F85C003D
:1030500000BF206808F06BFF002872D1E8492068A3
:10306000884215D02068C1692868C0F3130018B9D8
:103070002868C0F3846004E0286890FAA0F0B0FAF1
:1030800080F000F01F020120904001432068C161E0
:103090002168D5E9002001F1300CC0F3012B0CEBC5
:1030A0008B03D3F800C000F01F0E4FF01F0B0BFA7C
:1030B0000EFB2CEA0B0C00F01F0BC2F3846E0EFA11
:1030C0000BFE4CEA0E0CC3F800C000BF206808F0ED
:1030D0002EFF8146206808F011FF0746B9F1000F66
:1030E0007ED1002FFCD1AA682968206808F03AFF39
:1030F000C3492068884208D168692168C968C1F35A
:10310000C101490000FA01F825E0C148006800F05B
:103110007040B0F1805F07D168692168C968C1F368
:1031200082014900884015E02068C06800F0100066
:1031300040B968692168C968C1F3820149008840C3
:1031400008E0F2E268692168C96801F010018908A5
:10315000490088408046286904287CD0216843467D
:10316000D5F810C02A6801F1600B0BEB8C00DFF87A
:1031700090B259450AD1D0F800B002F0F84E4EF0A6
:10318000004E4EEA030EC0F800E00BE0D0F800B0AD
:103190000BF0004B02F0F84E4EEA030E4BEA0E0B1A
:1031A000C0F800B000BF96492068884231D120683D
:1031B000EA692969924B98420CD100F1600C0CEB42
:1031C0008103D3F800C02CF0807C4CEA020CC3F8D9
:1031D00000C000BF00BF206895F82020296900E0EA
:1031E000F5E0012A01D1520600E000221346844A8C
:1031F00090420CD100F1600C0CEB8102D2F800C0BF
:103200002CF0007C4CEA030CC2F800C000BF00BFE9
:1032100021E1206895F821202969012A01D1D207EE
:1032200000E000221346764A90420CD000F1600C78
:103230000CEB8102D2F800C02CF0004C4CEA030CDD
:10324000C2F800C000BF00BF20682B7E2969012B97
:1032500002D1DB0201E00DE000231A46036923F4EA
:10326000F04301F01F0C02FA0CFC43EA0C0303616B
:1032700000BFF0E062492068884271D100212068D7
:1032800008F033FEC0F3130030B90021206808F0C5
:103290002CFEC0F3846007E00021206808F025FEC2
:1032A00090FAA0F0B0FA80F02968C1F3130119B9BF
:1032B0002968C1F3846104E0296891FAA1F1B1FAA7
:1032C00081F1884204D100221146206808F064FE92
:1032D0000121206808F009FEC0F3130030B9012174
:1032E000206808F002FEC0F3846007E00121206836
:1032F00008F0FBFD90FAA0F0B0FA80F02968C1F365
:10330000130119B92968C1F3846104E0296891FAAD
:10331000A1F1B1FA81F1884204D100220121206893
:1033200008F03AFE0221206808F0DFFDC0F3130028
:1033300030B90221206808F0D8FDC0F3846007E0AE
:103340000221206808F0D1FD90FAA0F0B0FA80F0D8
:103350002968C1F3130121B92968C1F3846105E02B
:1033600036E0296891FAA1F1B1FA81F1884204D1DD
:1033700000220221206808F00FFE0321206808F0D7
:10338000B4FDC0F3130030B90321206808F0ADFD8F
:10339000C0F3846007E00321206808F0A6FD90FADE
:1033A000A0F0B0FA80F02968C1F3130119B92968B7
:1033B000C1F3846104E0296891FAA1F1B1FA81F1C5
:1033C000884248D100220321206808F0E5FD42E050
:1033D0002068006E00F0F8402978B0EB816F05D1CD
:1033E0002068006E20F00040216808662068406E6A
:1033F00000F0F8402978B0EB816F10D1206809E027
:10340000006002580000FF470020024000210240F7
:103410000010005C406E20F0004021684866206883
:10342000806E00F0F8402978B0EB816F05D12068FC
:10343000806E20F00040216888662068C06E00F031
:10344000F8402978B0EB816F05D12068C06E20F07C
:1034500000402168C866206808F05AFD00286FD136
:103460002068EA682968B74B984212D1D0F8B0308A
:10347000C1F3130C23EA0C0302F0180BDFF8C8C2E7
:103480002CFA0BFC0CEA010C43EA0C03C0F8B03038
:1034900011E0D0F8C030C1F3130C23EA0C0302F0A2
:1034A000180BDFF8A4C22CFA0BFC0CEA010C43EA5F
:1034B0000C03C0F8C03000BFA449E86888427DD141
:1034C0002B68C3F313031BB92B68C3F3846304E0B5
:1034D0002B6893FAA3F3B3FA83F35B1C03F01F0387
:1034E000092B3FD82B68C3F313031BB92B68C3F315
:1034F000846304E02B6893FAA3F3B3FA83F35B1CB1
:1035000003F01F034FF0010C0CFA03FC2B68C3F30C
:1035100013031BB92B68C3F3846304E02B6893FA8D
:10352000A3F3B3FA83F35B1C03F01F034CEA836C31
:103530002B68C3F3130323B92B68C3F3846305E03B
:10354000B1E02B6893FAA3F3B3FA83F35B1C03F0A7
:103550001F0303EB43034FF0000B4BEA03534CEA0A
:10356000030340E02B68C3F313031BB92B68C3F3B9
:10357000846304E02B6893FAA3F3B3FA83F35B1C30
:1035800003F01F034FF0010C0CFA03FC2B68C3F38C
:1035900013031BB92B68C3F3846304E02B6893FA0D
:1035A000A3F3B3FA83F35B1C03F01F034CEA836CB1
:1035B0002B68C3F313032BB92B6800E018E0C3F3A7
:1035C000846304E02B6893FAA3F3B3FA83F35B1CE0
:1035D00003F01F030A3B03EB43034FF0007B4BEA6E
:1035E00003534CEA03031946AA68206808F0BAFCA2
:1035F000286800F00040002855D0554A21689142C3
:1036000003D0544A2168914201D1534900E0534903
:103610000846816801F0E07600BF4D492068884285
:1036200003D04C492068884201D14B4800E04B4808
:103630004949884209D1464808F06AFC8346454812
:1036400008F066FC4BEA000002E03E4808F060FC2F
:10365000F0BB43492868884226D106F4000018BB15
:1036600038492068884266D1394B22689A4203D093
:10367000384B22689A4201D1374A00E0374A104657
:1036800046F4000108F082FC364800683649B0FB79
:10369000F1F0401C4000009002E00098401E0090B5
:1036A00000980028F9D146E030492868884219D1AD
:1036B00006F08070B0B92349206888423BD1244B82
:1036C00022689A4203D0234B22689A4203D100E039
:1036D00024E0214A00E0214A104646F0807108F0BB
:1036E00055FC28E022492868884224D106F480004D
:1036F00008BB1449206888421DD1154B22689A42A4
:1037000003D0144B22689A4201D1134A00E0134AB5
:10371000104646F4800108F039FC0CE0206E40F0C1
:10372000200020664FF0010A05E0206E40F02000E6
:1037300020664FF0010A00BF002084F85C0000BF43
:10374000504680E400600258FFFF0F000000FF4772
:103750000020024000210240002302400063025882
:10376000000052C730000024400D0300000021C3B8
:10377000000084CB70477047704700002DE9F84F78
:1037800004464FF000090020009014B90120BDE864
:10379000F88F206920B12020005D012800D100BFF2
:1037A000206E30B9204600F089F90020606684F868
:1037B0005C0020688168C1F3407131B12068816884
:1037C000B24A1140816000BF00BF206808F0AAFB28
:1037D000A8B920688168AE4A114041F080518160EB
:1037E00000BFAC480068AC49B0FBF1F0401C009051
:1037F00002E00098401E009000980028F9D120684F
:1038000008F090FB48B9206E40F010002066606E12
:1038100040F0010060664FF00109206808F087FB66
:103820000646206E00F0100000287DD1002EFCD14D
:10383000206E20F4807040F002002066206808F0BE
:1038400067FB78BB95492068884203D0944920687B
:10385000884201D1934800E093489249884209D1B7
:103860008E4808F055FB82468D4808F051FB4AEA25
:10387000000002E08D4808F04BFB98B9874B2268A6
:103880009A4203D0864B22689A4201D1854A00E0D1
:10389000854A10466168826822F47C120A4382607D
:1038A00000BF00BF81492068884223D1607EE16B60
:1038B00041EA4030E1680843A168082901D10021AC
:1038C0000FE0A1680C2901D104210AE0A1681C299C
:1038D00001D1082105E0A168182901D11C2100E0CF
:1038E000002101F00C0140EA41012020005D41EA85
:1038F000004509E0607EE16B41EA4030A168084381
:103900002021095D40EA01452020005D012803D106
:10391000A08C401E45EA4045A06A38B1208D00F4D5
:103920007870E16A084300E0A7E005435F4920683A
:1039300088420FD12068C0685D490840284321684B
:10394000C8602068006920F04060616B084321680E
:10395000086106E02068C06856490840284321688D
:10396000C860206808F0E3FA8046206808F0C6FACC
:103970000746B8F1000F66D1002F64D14B4920688B
:10398000884206D1207E810394F8380041EA400540
:1039900003E0207E216B41EA80352068C06844F254
:1039A0000301884328432168C86094F84400012833
:1039B00034D13E492068884200D100E000BFA06AAF
:1039C00008B1E06A00B900BF38492068884210D1C8
:1039D000A06C40F00101E06C0843216D0843616D6B
:1039E000084321680969344A114008432168086185
:1039F0001AE0B4F84800401E012141EA0041E06CA1
:103A00000843216D0843616D0843216809692A4A0A
:103A1000521E114008432168086105E020680069D2
:103A200020F00100216808612068006920F07040E2
:103A3000216C0843216808611C492068884202D033
:103A40002046FDF71BF92069012809D12068006B89
:103A500020F00F00E169491E08432168086305E072
:103A60002068006B20F00F0021680863206E20F0B2
:103A7000020040F00100206605E0206E40F01000DA
:103A800020664FF00109484681E60000C0FFFF5F55
:103A9000C0FFFF7F30000024400D030000200240E3
:103AA00000210240002302400063025800600258D7
:103AB0000740F0FF03C0F0FF1FF800FC10B586B010
:103AC0000446142101A8FCF7C7FC3249206888424B
:103AD0005DD100BF3048006840F020002E490860EA
:103AE0000846006800F02000009000BF00BF00BF43
:103AF00029480830006840F0010027490831086073
:103B00000846006800F00100009000BF00BF00BF41
:103B10000846006840F0040008600846006800F0AD
:103B20000400009000BF00BF2020019003200290FD
:103B30000020039001A9194802F014FE1020019002
:103B4000032002900020039001A9154802F00AFE0C
:103B50001448154908600920486000211248816016
:103B6000C1604FF480610161490041618900816158
:103B70004911C16100210162416201F085FA08B179
:103B8000FEF730FF00BF0848A065846300BF06B0A1
:103B900010BD000000200240D84402580000025826
:103BA0000008025858000240A40300242DE9F04107
:103BB00004460F469046514A2168914203D0504A2C
:103BC0002168914201D14F4900E04F49084608F071
:103BD00087F90646206808F0AAF900287CD100BFC2
:103BE00094F85C00012802D10220BDE8F081012098
:103BF00084F85C0000BF1EB1052E01D0092E73D1E0
:103C00002046FDF77DF90546002D68D1206E40F66F
:103C10000161884340F480702066394920688842F9
:103C200001D1364800E020682168884200D01EB9E2
:103C3000206E20F480102066206E00F4805020B1A9
:103C4000606E20F00600606601E0002060662F488C
:103C5000A16DC8632E48A16D08642E48A16DC8648B
:103C60001C202168086000BF002084F85C0000BFB1
:103C70002068406840F010002168486026492068AC
:103C8000884213D194F8382051002068224A90428B
:103C900004D1C26822F003020A43C26000BF206858
:103CA000C16841F00101C16000BF08E0216B2068DC
:103CB000C26822F003020A43C26000BF00BF22684C
:103CC00002F1400143463A46A06D01F067FC05460B
:103CD000206808F03FF90EE00CE005E0FFE700BFC8
:103CE000002084F85C0006E0012500BF002084F875
:103CF0005C0000E00225284677E700000020024033
:103D0000002102400023024000630258AD0D00086C
:103D10005D0E00083F0E0008006002582DE9F041DA
:103D2000044602F01DFE804614B90120BDE8F08172
:103D300094F83500022808D08020606500BF00207C
:103D400084F8340000BF0120F0E7FE492068884273
:103D500049D0FC4918312068884244D0F9493031B3
:103D6000206888423FD0F7494831206888423AD0DD
:103D7000F44960312068884235D0F24978312068B2
:103D8000884230D0EF499031206888422BD0ED49ED
:103D9000A8312068884226D0EB492068884222D08A
:103DA000E9491831206888421DD0E7493031206840
:103DB000884218D0E44948312068884213D0E2494B
:103DC0006031206888420ED0DF497831206888420F
:103DD00009D0DD4990312068884204D0DA49A83101
:103DE0002068884201D1012000E0002068B12068ED
:103DF000006820F01E00216808602068406920F0FB
:103E0000800021684861256806E02068006820F08D
:103E10000E00216808602568CA492068884270D071
:103E2000C8491831206888426BD0C64930312068B3
:103E3000884266D0C34948312068884261D0C14970
:103E40006031206888425CD0BE4978312068884261
:103E500057D0BC4990312068884252D0B949A83126
:103E6000206888424DD0B8492068884249D0B64978
:103E700018312068884244D0B349303120688842E4
:103E80003FD0B1494831206888423AD0AE496031CC
:103E90002068884235D0AC4978312068884230D0DB
:103EA000A9499031206888422BD0A749A8312068C1
:103EB000884226D0A5492068884222D0A3491431DF
:103EC000206888421DD0A14928312068884218D036
:103ED0009E493C312068884213D09C49503120686B
:103EE00088420ED0994964312068884209D09749A8
:103EF00078312068884204D094498C312068884207
:103F000001D1012000E0002028B1206E006820F4DB
:103F10008070216E08608B492068884249D08949A9
:103F200018312068884244D0864930312068884260
:103F30003FD084494831206888423AD08149603175
:103F40002068884235D07F4978312068884230D057
:103F50007C499031206888422BD07A49A83120686A
:103F6000884226D078492068884222D07649183184
:103F7000206888421DD0744930312068884218D0AA
:103F8000714948312068884213D06F4960312068F8
:103F900088420ED06C4978312068884209D06A493D
:103FA00090312068884204D06749A831206888424F
:103FB00006D12068006820F001002168086005E053
:103FC0002068006820F001002168086011E002F01C
:103FD000C7FCA0EB080005280BD920206065032052
:103FE00084F8350000BF002084F8340000BF0120B1
:103FF0009CE6286800F001000028E8D151492068BB
:10400000884249D04F4918312068884244D04D49F0
:104010003031206888423FD04A4948312068884280
:104020003AD0484960312068884235D045497831D6
:104030002068884230D043499031206888422BD094
:104040004049A8312068884226D03F4920688842EC
:1040500022D03D491831206888421DD03A4930317C
:104060002068884218D0384948312068884213D0E7
:1040700035496031206888420ED033497831206854
:10408000884209D0304990312068884204D02E49B6
:10409000A8312068884201D1012000E0002040B111
:1040A000A66D94F85C0000F01F013F208840B060CE
:1040B00007E0A76D94F85C0000F01F010120884024
:1040C000786020492068884276D01E4918312068DF
:1040D000884271D01B493031206888426CD0194920
:1040E00048312068884267D016496031206888428C
:1040F00062D014497831206888425DD011499031EE
:104100002068884258D00F49A8312068884253D08F
:104110000D49206888424FD00B49183120688842E9
:104120004AD0094930312068884245D00649483193
:104130002068884240D004496031206888423BD0E2
:10414000014905E0100002401004024008540258E2
:104150007831206888422FD02549206888422BD0AA
:10416000234918312068884226D022492068884295
:1041700022D020491431206888421DD01D492831A1
:104180002068884218D01B493C312068884213D0EF
:1041900018495031206888420ED016496431206891
:1041A000884209D0134978312068884204D01149E7
:1041B0008C312068884201D1012000E0002068B1E4
:1041C000D4E919104860E06E40B1E06E006820F458
:1041D0008070E16E0860D4E91C104860012084F80A
:1041E000350000BF002084F8340000BF00BF9DE50B
:1041F000A00402400854025870B504460CB90120CE
:1042000070BD94F83500022803D08020606501203D
:10421000F6E7DC492068884249D0DA49183120683D
:10422000884244D0D7493031206888423FD0D549B0
:104230004831206888423AD0D249603120688842AB
:1042400035D0D04978312068884230D0CD4990317E
:10425000206888422BD0CB49A8312068884226D0DC
:10426000C9492068884222D0C7491831206888424D
:104270001DD0C54930312068884218D0C249483124
:104280002068884213D0C0496031206888420ED02F
:10429000BD4978312068884209D0BB4990312068F7
:1042A000884204D0B849A8312068884201D1012051
:1042B00000E00020F0B3042084F83500B149206804
:1042C00088424BD0AF4918312068884246D0AD496A
:1042D00030312068884241D0AA494831206888425C
:1042E0003CD0A84960312068884237D0A549783150
:1042F0002068884232D0A3499031206888422DD06E
:10430000A049A8312068884228D09F492068884267
:1043100024D09D491831206888421FD09A493031F5
:10432000206888421AD0984948312068884215D0C0
:10433000954900E020E06031206888420ED0924923
:1043400078312068884209D08F49903120688842AE
:1043500004D08D49A8312068884206D120680068C1
:1043600020F001002168086009E12068006820F061
:1043700001002168086002E12068006820F00E005A
:10438000216808607F492068884249D07D491831FA
:104390002068884244D07B493031206888423FD031
:1043A00078494831206888423AD07649603120689F
:1043B000884235D0734978312068884230D07149BD
:1043C0009031206888422BD06E49A83120688842FD
:1043D00026D06D492068884222D06B491831206868
:1043E00088421DD0684930312068884218D066491B
:1043F00048312068884213D0634960312068884280
:104400000ED0614978312068884209D05E499031E8
:104410002068884204D05C49A8312068884206D1CF
:104420002068006820F001002168086005E020682D
:10443000006820F001002168086052492068884225
:1044400070D050491831206888426BD04D493031C6
:104450002068884266D04B4948312068884261D044
:1044600048496031206888425CD0464978312068EC
:10447000884257D0434990312068884252D0414900
:10448000A831206888424DD03F492068884249D0F1
:104490003D4918312068884244D03B49303120687A
:1044A00088423FD038494831206888423AD036495E
:1044B00060312068884235D033497831206888429D
:1044C00030D031499031206888422BD02E49A83114
:1044D0002068884226D02D492068884222D02B4966
:1044E0001431206888421DD028492831206888422C
:1044F00018D026493C312068884213D023495031D6
:10450000206888420ED0214964312068884209D051
:104510001E4978312068884204D01C498C312068BB
:10452000884201D1012000E00020D8B1206E00684F
:1045300020F48070216E0860A56D94F85C0000F096
:104540001F01012088406860D4E919104860E06EBE
:1045500040B1E06E006820F48070E16E0860D4E93C
:104560001C104860012084F8350000BF002084F84A
:10457000340000BF206D10B12046216D8847002017
:104580003EE60000100002401004024008540258A9
:104590002DE9F84F044600200090FE4800684FF4D3
:1045A0001651B0FBF1FAA66DD4F858803768D8F8E8
:1045B0000090F9492068884249D0F74918312068AD
:1045C000884244D0F4493031206888423FD0F249D3
:1045D0004831206888423AD0EF49603120688842EB
:1045E00035D0ED4978312068884230D0EA499031A1
:1045F000206888422BD0E849A8312068884226D01C
:10460000E6492068884222D0E4491831206888426F
:104610001DD0E24930312068884218D0DF49483146
:104620002068884213D0DD496031206888420ED06E
:10463000DA4978312068884209D0D8499031206819
:10464000884204D0D549A8312068884201D1012090
:1046500000E0002000287DD094F85C0000F01F01ED
:10466000082088403840002868D0CB49206888421C
:1046700049D0C94918312068884244D0C6493031F0
:10468000206888423FD0C4494831206888423AD0E7
:10469000C14960312068884235D0BF4978312068EF
:1046A000884230D0BC499031206888422BD0BA492A
:1046B000A8312068884226D0B8492068884222D094
:1046C000B6491831206888421DD0B449303120687D
:1046D000884218D0B14948312068884213D0AF4988
:1046E0006031206888420ED0AC4978312068884219
:1046F00009D0AA4990312068884204D0A749A8313E
:104700002068884204D12068006800F0040003E0BB
:104710002068006800F0080080B12068006820F080
:1047200004002168086094F85C0000F01F01082074
:104730008840B060606D40F00100606594F85C00F6
:1047400000F01F01012088403840E8B392492068FA
:10475000884200E0B7E24BD08F4918312068884288
:1047600046D08D4930312068884241D08A4948314D
:10477000206888423CD0884960312068884237D020
:10478000854978312068884232D083499031206849
:1047900088422DD08049A8312068884228D07F499E
:1047A0002068884224D07D491831206888421FD073
:1047B0007A493031206888421AD0784948312068D7
:1047C000884215D0754900E026E0603120688842B3
:1047D0000ED0724978312068884209D06F499031F3
:1047E0002068884204D06D49A8312068884204D1ED
:1047F0002068406900F0800002E020680068002026
:1048000050B194F85C0000F01F0101208840B060B6
:10481000606D40F00200606594F85C0000F01F01DC
:10482000042088403840E8B35B49206888424BD078
:10483000594918312068884246D05749303120689C
:10484000884241D054494831206888423CD052497E
:1048500060312068884237D04F49783120688842DB
:1048600032D04D499031206888422DD04A49A83134
:104870002068884228D049492068884224D0474986
:104880001831206888421FD044493031206888425E
:104890001AD0424948312068884215D03F496031DA
:1048A000206800E024E088420ED03C49783120683E
:1048B000884209D0394990312068884204D037496C
:1048C000A8312068884204D12068006800F0020006
:1048D00002E020680068002050B194F85C0000F00D
:1048E0001F0104208840B060606D40F004006065E6
:1048F00094F85C0000F01F01102088403840E8B3B5
:1049000025492068884251D02349183120688842BF
:104910004CD0214930312068884247D01E49483167
:104920002068884242D01C496031206888423DD0CE
:10493000194978312068884238D017499031206869
:10494000884233D01449A831206888422ED01349B8
:10495000206888422AD0114918312068884225D021
:104960000E4930312068884220D00C4948312068F7
:1049700088421BD009496031206800E04DE0884240
:1049800014D006497831206888420FD0034990310D
:10499000206805E0300000241000024010040240AE
:1049A000884203D0FE492068884204D1206800680C
:1049B00000F0080003E02068006800F0040060B325
:1049C00094F85C0000F01F0110208840B06020685F
:1049D000006800F4802080B12068006800F40020A6
:1049E00028B9206CC8B12046216C884715E0A06C1E
:1049F00098B12046A16C88470FE02068006800F459
:104A0000807028B92068006820F0080021680860DC
:104A1000206C10B12046216C884794F85C0000F0AF
:104A20001F0120208840384000287DD0DD492068C3
:104A3000884249D0DB4918312068884244D0D9499E
:104A40003031206888423FD0D649483120688842BA
:104A50003AD0D44960312068884235D0D149783184
:104A60002068884230D0CF499031206888422BD0CE
:104A7000CC49A8312068884226D0C949A839206885
:104A8000884221D0C6499039206888421CD0C44948
:104A900078392068884217D0C14960392068884237
:104AA00012D0BF494839206888420DD0BC493039FE
:104AB0002068884208D0BA4918392068884203D053
:104AC000B7492068884204D12068006800F01000CF
:104AD00003E02068006800F0020028B394F85C004E
:104AE00000F01F0120208840B06094F835000428B1
:104AF0002DD12068006820F0160021680860206829
:104B0000406920F0800021684861206C08B9A06CE1
:104B100028B12068006820F008002168086094F837
:104B20005C0000F01F0100E03FE03F208840B060E3
:104B3000012084F8350000BF002084F8340000BF55
:104B4000206D10B12046216D8847BDE8F88F2068A0
:104B5000006800F4802080B12068006800F4002024
:104B600028B9606C08B32046616C88471DE0E06B93
:104B7000D8B12046E16B884717E02068006800F450
:104B8000807068B92068006820F010002168086013
:104B9000012084F8350000BF002084F8340000BFF5
:104BA000E06B10B12046E16B8847606D00287AD039
:104BB000606D00F00100E8B3042084F83500794905
:104BC000206888424BD0774918312068884246D007
:104BD000744930312068884241D072494831206898
:104BE00088423CD06F4960312068884237D06D4997
:104BF00078312068884232D06A49903120688842F2
:104C00002DD06849A8312068884228D06449A83945
:104C10002068884223D062499039206888421ED09B
:104C20005F4978392068884219D05D496039206829
:104C3000884200E040E012D0594948392068884253
:104C40000DD0574930392068884208D05449183966
:104C50002068884203D052492068884206D12068E3
:104C6000006820F001002168086005E02068006805
:104C700020F001002168086000BF0098401C0090EF
:104C8000504500D905E02068006800F001000028C8
:104C9000F3D100BF2068006800F0010020B10320BC
:104CA00084F8350003E00DE0012084F8350000BFF2
:104CB000002084F8340000BFE06C002802D02046B9
:104CC000E16C8847D9E138492068884222D03649CA
:104CD0001431206888421DD0334928312068884229
:104CE00018D031493C312068884213D02E495031C8
:104CF000206888420ED02C4964312068884209D04F
:104D0000294978312068884204D027498C312068AD
:104D1000884201D1012000E000200028D2D0206884
:104D2000056894F85C0000F01F010420884000EA48
:104D30000900D8B305F00400C0B394F85C0000F09B
:104D40001F0104208840C8F8040005F4004080B129
:104D500005F4803030B9A06C0028B3D02046A16C97
:104D600088478AE1206C0028ACD02046216C884717
:104D700083E105F02000E8BB0A492068884253D04F
:104D800008491831206888424ED0064930312068E1
:104D9000884249D0034948312068884244D006E01F
:104DA000B804024010000240085402584FE0B449D1
:104DB00060312068884237D0B14978312068884214
:104DC00032D0AF499031206888422DD0AC49A8310B
:104DD0002068884228D0AB492068884224D0A9495D
:104DE0001831206888421FD0A64930312068884297
:104DF0001AD000E025E0A34948312068884213D04A
:104E0000A0496031206888420ED09E4978312068E0
:104E1000884209D09B4990312068884204D0994942
:104E2000A8312068884206D12068006820F0080078
:104E30002168086005E02068006820F0040021680F
:104E40000860206C10B32046216C884715E194F867
:104E50005C0000F01F010220884000EA0900E8B36E
:104E600005F00200D0B394F85C0000F01F010220AE
:104E70008840C8F8040005F4004070B105F48030A3
:104E800028B9606C10B12046616C8847F5E0E06B92
:104E9000F0B32046E16B8847EFE005F02000C0BB8F
:104EA0007749206888424ED0754918312068884279
:104EB00049D0734930312068884244D07049483124
:104EC000206888423FD06E496031206888423AD0DD
:104ED0006B4978312068884235D000E04EE068495F
:104EE0009031206888422ED06549A83120688842D8
:104EF00029D064492068884225D062491831206849
:104F0000884220D05F493031206888421BD001E0C0
:104F10006EE02DE05B4948312068884213D0594942
:104F20006031206888420ED0564978312068884226
:104F300009D0544990312068884204D05149A831A1
:104F40002068884206D12068006820F0140021689B
:104F5000086005E02068006820F00A002168086009
:104F6000012084F8350000BF002084F8340000BF21
:104F7000E06BE8B32046E16B88477EE094F85C0084
:104F800000F01F010820884000EA090080B305F006
:104F9000080068B33A49206888424BD03849183134
:104FA0002068884246D0364930312068884241D056
:104FB00033494831206888423CD03149603120680B
:104FC000884237D02E4978312068884232D02C4927
:104FD0009031206888422DD02949A8312068884224
:104FE00028D028492068884224D02649183100E07A
:104FF00043E0206888421DD0224930312068884231
:1050000018D0204948312068884213D01D496031AA
:10501000206888420ED01B4978312068884209D028
:10502000184990312068884204D01649A831206878
:10503000884206D12068006820F01C0021680860C2
:1050400005E02068006820F00E002168086094F8F0
:105050005C0000F01F0101208840C8F80400012016
:10506000606584F8350000BF002084F8340000BF7C
:10507000E06C10B12046E16C884700BF65E5000098
:1050800010000240100402402DE9F041044601F0F6
:1050900067FC804614B90120BDE8F081FE49206814
:1050A000884249D0FC4918312068884244D0FA49E6
:1050B0003031206888423FD0F74948312068884223
:1050C0003AD0F54960312068884235D0F2497831CC
:1050D0002068884230D0F0499031206888422BD037
:1050E000ED49A8312068884226D0EC4920688842E2
:1050F00022D0EA491831206888421DD0E749303172
:105100002068884218D0E54948312068884213D089
:10511000E2496031206888420ED0E0497831206849
:10512000884209D0DD4990312068884204D0DB49AB
:10513000A8312068884201D1012000E00020002829
:1051400073D0606A00B100BF022084F8350000BF50
:10515000002084F8340000BFCF492068884249D03D
:10516000CD4918312068884244D0CB49303120687D
:1051700088423FD0C8494831206888423AD0C64961
:1051800060312068884235D0C34978312068884230
:1051900030D0C1499031206888422BD0BE49A83117
:1051A0002068884226D0BD492068884222D0BB4969
:1051B0001831206888421DD0B849303120688842B3
:1051C00018D0B64948312068884213D0B3496031BD
:1051D000206888420ED0B14978312068884209D0D1
:1051E000AE4990312068884204D0AC49A83120688B
:1051F000884206D12068006820F00100216808601C
:1052000005E02068006820F00100216808600DE0DA
:1052100001F0A6FBA0EB0800052807D92020606557
:10522000032084F83500012036E769E02068006833
:1052300000F001000028EBD120680568984805407F
:10524000D4E9020108432169084361690843A1695F
:105250000843E1690843216A08430543606A04285A
:1052600003D1D4E90B01084305436068292802D320
:1052700060682E2817D960683F2802D360684228EA
:1052800011D96068472802D3606848280BD9606844
:105290004F2802D36068522805D96068742804D367
:1052A0006068772801D8012000E0002008B145F4AB
:1052B0008015206805602068456925F00705606A4B
:1052C0000543606A04280DD1A06A0543E06A48B12D
:1052D0002046FDF725F828B140206065012084F8BC
:1052E0003500D9E6206845612046FCF7F5FE064604
:1052F00094F85C0000F01F013F208840B0609EE001
:1053000068492068884222D0664914312068884262
:105310001DD0644928312068884218D061493C3149
:105320002068884213D05F495031206888420ED0EF
:105330005C4964312068884209D05A497831206834
:10534000884204D057498C312068884201D101201D
:1053500000E00020E0B353492068884222D0514940
:105360001431206888421DD04E4928312068884277
:1053700018D04C493C312068884213D049495031FB
:10538000206888420ED0474964312068884209D09D
:10539000444978312068884204D042498C312068E1
:1053A000884201D1012000E0002000B100BF0220AE
:1053B00084F8350000BF002084F8340000BF206866
:1053C000056839480540A068402802D1102106E050
:1053D0002EE0A068802801D1C10100E00021E06832
:1053E00041EAD001206941EAD001606941EAD00177
:1053F000A06941EAD001E06941EAD001206A41EAAE
:10540000101005432068056026492068401A1421C1
:10541000B0FBF1F08000E0652046FCF75DFE07463A
:1054200094F85C0000F01F0101208840786006E0DD
:1054300040206065032084F8350001202CE61649E1
:10544000206888427AD0144918312068884275D083
:10545000114930312068884270D00F4948312068A6
:1054600088426BD00C4960312068884266D00A4976
:1054700078312068884261D007499031206888429D
:105480005CD00549A8312068884257D0034920687C
:10549000884253D0014909E0100002401004024044
:1054A0003F8010FE085402580F00FEFF183120689C
:1054B000884243D03749206888423FD03549183167
:1054C000206888423AD0334930312068884235D04C
:1054D000304948312068884230D02E4960312068F8
:1054E00088422BD02B4978312068884226D02A491F
:1054F0002068884222D028491431206888421DD073
:10550000254928312068884218D023493C31206839
:10551000884213D020495031206888420ED01E495D
:1055200064312068884209D01B497831206888425C
:1055300004D019498C312068884201D1012000E053
:10554000002000B32046FCF73DFEA068802801D172
:10555000002060602079216E0860D4E9191048604D
:10556000606860B16068082809D82046FCF78CFEA6
:105570000020E16E0860D4E91C10486003E00020C0
:10558000E0662067606700206065012084F83500D0
:10559000002081E540040240085402582DE9F04102
:1055A00004460D4616461F464FF0000814B9012068
:1055B000BDE8F08100BF94F83400012801D1022039
:1055C000F6E7012084F8340000BF94F83500012884
:1055D0007ED1022084F8350000206065E44920680F
:1055E000884249D0E24918312068884244D0E049D5
:1055F0003031206888423FD0DD49483120688842F8
:105600003AD0DB4960312068884235D0D8497831BA
:105610002068884230D0D6499031206888422BD00B
:10562000D349A8312068884226D0D24920688842D0
:1056300022D0D0491831206888421DD0CD49303160
:105640002068884218D0CB4948312068884213D05E
:10565000C8496031206888420ED0C6497831206838
:10566000884209D0C34990312068884204D0C1499A
:10567000A8312068884206D12068006820F0010027
:105680002168086005E02068006820F001002168BA
:1056900008603B46324629462046FCF799FEB4494D
:1056A000206888424BD0B24918312068884246D0E1
:1056B000AF4930312068884241D0AD494831206837
:1056C00088423CD0AA4960312068884237D000E047
:1056D00042E1A74978312068884230D0A44990310E
:1056E000206888422BD0A249A8312068884226D061
:1056F000A0492068884222D09E49183120688842FB
:105700001DD09C4930312068884218D099494831D1
:105710002068884213D097496031206888420ED0B3
:10572000944978312068884209D0924990312068A4
:10573000884204D08F49A8312068884201D10120D5
:1057400000E0002080B12068006820F01E0040F0DA
:10575000160021680860206CB0B12068006840F035
:105760000800216808600FE02068006820F00E0043
:1057700040F00A0021680860206C28B120680068A9
:1057800040F004002168086079492068884270D0A0
:1057900077491831206888426BD0754930312068CC
:1057A000884266D0724948312068884261D0704989
:1057B0006031206888425CD06D4978312068884229
:1057C00057D06B4990312068884252D06849A8313F
:1057D000206888424DD067492068884249D0654991
:1057E00018312068884244D06249303120688842AC
:1057F0003FD060494831206888423AD05D496031E5
:105800002068884235D05B4978312068884230D0A2
:1058100058499031206888422BD05649A8312068D9
:10582000884226D054492068884222D052491431F7
:10583000206888421DD0504928312068884218D0FD
:105840004D493C312068884213D04B495031206883
:1058500088420ED0484964312068884209D04649C0
:1058600078312068884204D043498C3120688842CE
:1058700001D1012000E0002090B1206E006800F40A
:10588000803028B1206E006840F48070216E08607E
:10589000E06E28B1E06E006840F48070E16E086050
:1058A00033492068884249D03149183120688842FC
:1058B00044D02F493031206888423FD02C494831AC
:1058C000206888423AD02A4960312068884235D021
:1058D000274978312068884230D0254990312068A6
:1058E00088422BD02249A8312068884226D02149FD
:1058F0002068884222D01F491831206888421DD074
:105900001C4930312068884218D01A494831206833
:10591000884213D017496031206888420ED015495B
:1059200078312068884209D0124990312068884235
:1059300004D01049A8312068884206D12068006848
:1059400040F001002168086010E02068006840F025
:1059500001002168086009E04FF40060606500BF45
:10596000002084F8340000BF4FF0010840461FE6D5
:1059700010000240100402400854025870B504465A
:1059800000F0EEFF06462546681C10B1044800787A
:10599000054400BF00F0E4FF801BA842FAD370BDAD
:1059A0002C00002430B5034693F89840012C01D018
:1059B000022C3ED11868806D084030B91868C06D5F
:1059C00040F001001D68E8650EE01868806D084031
:1059D000884206D11868C06D40F002001D68E86575
:1059E00002E003201D68E86501F4007030B118681A
:1059F000D0F8E00010431D68C5F8E00001F48060B5
:105A000030B11868D0F8E40010431D68C5F8E40010
:105A100000BF1868406D0B4D0D4028431D68686538
:105A20000948006840EA9170074D286000BF0020D7
:105A300030BDD3F89C0040F00200C3F89C00012068
:105A4000F6E70000FFFFCF3F14A800402DE9F0412A
:105A500004460E461746706800B900E000BF94F88F
:105A60009800022832D12068D0F8C00000F07C50A5
:105A700040B9D4F89C0040F02000C4F89C000120FC
:105A8000BDE8F0812068D0F8C40000F4001038B1FF
:105A9000D4F89C0040F40070C4F89C000120EFE7AB
:105AA0002068D0F8C400C0F304452B463A4631467E
:105AB0002046FDF723F90120A8402168C1F8D00055
:105AC0000120A840C4F894000020D9E7D4F89C0035
:105AD00040F00800C4F89C000120D1E77047F0B501
